{
  "contractName": "Myfoundry",
  "abi": [
    {
      "inputs": [
        {
          "internalType": "string",
          "name": "name_",
          "type": "string"
        }
      ],
      "name": "Createfoundry",
      "outputs": [],
      "stateMutability": "nonpayable",
      "type": "function"
    },
    {
      "inputs": [
        {
          "internalType": "string",
          "name": "name_",
          "type": "string"
        }
      ],
      "name": "getowner",
      "outputs": [
        {
          "internalType": "address",
          "name": "",
          "type": "address"
        }
      ],
      "stateMutability": "view",
      "type": "function"
    },
    {
      "inputs": [
        {
          "internalType": "string",
          "name": "name_",
          "type": "string"
        }
      ],
      "name": "getnumber",
      "outputs": [
        {
          "internalType": "uint256",
          "name": "",
          "type": "uint256"
        }
      ],
      "stateMutability": "view",
      "type": "function"
    }
  ],
  "bytecode": "0x60806040526040518060200160405280600081525060009080519060200190610029929190610041565b50600060015534801561003b57600080fd5b50610145565b82805461004d90610113565b90600052602060002090601f01602090048101928261006f57600085556100b6565b82601f1061008857805160ff19168380011785556100b6565b828001600101855582156100b6579182015b828111156100b557825182559160200191906001019061009a565b5b5090506100c391906100c7565b5090565b5b808211156100e05760008160009055506001016100c8565b5090565b7f4e487b7100000000000000000000000000000000000000000000000000000000600052602260045260246000fd5b6000600282049050600182168061012b57607f821691505b6020821081141561013f5761013e6100e4565b5b50919050565b610747806101546000396000f3fe608060405234801561001057600080fd5b50600436106100415760003560e01c8063438b996d146100465780634df9df0014610076578063aff11c83146100a6575b600080fd5b610060600480360381019061005b91906103e3565b6100c2565b60405161006d9190610445565b60405180910390f35b610090600480360381019061008b91906103e3565b6100ea565b60405161009d91906104a1565b60405180910390f35b6100c060048036038101906100bb919061051c565b610132565b005b60006002826040516100d491906105e3565b9081526020016040518091039020549050919050565b60006003826040516100fc91906105e3565b908152602001604051809103902060009054906101000a900473ffffffffffffffffffffffffffffffffffffffff169050919050565b8181600091906101439291906101e6565b506001546002838360405161015992919061061f565b908152602001604051809103902081905550336003838360405161017e92919061061f565b908152602001604051809103902060006101000a81548173ffffffffffffffffffffffffffffffffffffffff021916908373ffffffffffffffffffffffffffffffffffffffff160217905550600160008154809291906101dd90610667565b91905055505050565b8280546101f2906106df565b90600052602060002090601f016020900481019282610214576000855561025b565b82601f1061022d57803560ff191683800117855561025b565b8280016001018555821561025b579182015b8281111561025a57823582559160200191906001019061023f565b5b509050610268919061026c565b5090565b5b8082111561028557600081600090555060010161026d565b5090565b6000604051905090565b600080fd5b600080fd5b600080fd5b600080fd5b6000601f19601f8301169050919050565b7f4e487b7100000000000000000000000000000000000000000000000000000000600052604160045260246000fd5b6102f0826102a7565b810181811067ffffffffffffffff8211171561030f5761030e6102b8565b5b80604052505050565b6000610322610289565b905061032e82826102e7565b919050565b600067ffffffffffffffff82111561034e5761034d6102b8565b5b610357826102a7565b9050602081019050919050565b82818337600083830152505050565b600061038661038184610333565b610318565b9050828152602081018484840111156103a2576103a16102a2565b5b6103ad848285610364565b509392505050565b600082601f8301126103ca576103c961029d565b5b81356103da848260208601610373565b91505092915050565b6000602082840312156103f9576103f8610293565b5b600082013567ffffffffffffffff81111561041757610416610298565b5b610423848285016103b5565b91505092915050565b6000819050919050565b61043f8161042c565b82525050565b600060208201905061045a6000830184610436565b92915050565b600073ffffffffffffffffffffffffffffffffffffffff82169050919050565b600061048b82610460565b9050919050565b61049b81610480565b82525050565b60006020820190506104b66000830184610492565b92915050565b600080fd5b600080fd5b60008083601f8401126104dc576104db61029d565b5b8235905067ffffffffffffffff8111156104f9576104f86104bc565b5b602083019150836001820283011115610515576105146104c1565b5b9250929050565b6000806020838503121561053357610532610293565b5b600083013567ffffffffffffffff81111561055157610550610298565b5b61055d858286016104c6565b92509250509250929050565b600081519050919050565b600081905092915050565b60005b8381101561059d578082015181840152602081019050610582565b838111156105ac576000848401525b50505050565b60006105bd82610569565b6105c78185610574565b93506105d781856020860161057f565b80840191505092915050565b60006105ef82846105b2565b915081905092915050565b60006106068385610574565b9350610613838584610364565b82840190509392505050565b600061062c8284866105fa565b91508190509392505050565b7f4e487b7100000000000000000000000000000000000000000000000000000000600052601160045260246000fd5b60006106728261042c565b91507fffffffffffffffffffffffffffffffffffffffffffffffffffffffffffffffff8214156106a5576106a4610638565b5b600182019050919050565b7f4e487b7100000000000000000000000000000000000000000000000000000000600052602260045260246000fd5b600060028204905060018216806106f757607f821691505b6020821081141561070b5761070a6106b0565b5b5091905056fea264697066735822122024d4335de3002d440498be3dee70e5204d6c8ed7bbf92f2d2dfe816700390e1864736f6c63430008090033",
  "immutableReferences": {},
  "source": "pragma solidity ^0.8.0;\ncontract Myfoundry{\n    string name=\"\";\n    uint number=0;\n    mapping(string=>uint)foundrynumber;\n    mapping (string=>address) foundryowner;\n    function Createfoundry(string calldata name_) public{\n        name=name_;\n        foundrynumber[name_]=number;\n        foundryowner[name_]=msg.sender;\n        number++;\n    }\n    function getowner(string memory  name_)  view public returns(address){\n        return foundryowner[name_];\n    }\n    function getnumber(string memory name_) view public returns(uint){\n        return foundrynumber[name_];\n    }\n}",
  "sourcePath": "/Users/dingzhengyao/Desktop///dapp/contracts/Myfoundry.sol",
  "compiler": {
    "name": "solc",
    "version": "0.8.9+commit.e5eed63a.Emscripten.clang"
  },
  "schemaVersion": "3.4.3",
  "updatedAt": "2021-10-25T04:02:36.116Z",
  "devdoc": {
    "kind": "dev",
    "methods": {},
    "version": 1
  },
  "userdoc": {
    "kind": "user",
    "methods": {},
    "version": 1
  }
}