{
  "contractName": "SimpleAuction",
  "abi": [
    {
      "inputs": [],
      "stateMutability": "nonpayable",
      "type": "constructor"
    },
    {
      "anonymous": false,
      "inputs": [
        {
          "indexed": true,
          "internalType": "address",
          "name": "owner",
          "type": "address"
        },
        {
          "indexed": true,
          "internalType": "address",
          "name": "approved",
          "type": "address"
        },
        {
          "indexed": true,
          "internalType": "uint256",
          "name": "tokenId",
          "type": "uint256"
        }
      ],
      "name": "Approval",
      "type": "event"
    },
    {
      "anonymous": false,
      "inputs": [
        {
          "indexed": true,
          "internalType": "address",
          "name": "owner",
          "type": "address"
        },
        {
          "indexed": true,
          "internalType": "address",
          "name": "operator",
          "type": "address"
        },
        {
          "indexed": false,
          "internalType": "bool",
          "name": "approved",
          "type": "bool"
        }
      ],
      "name": "ApprovalForAll",
      "type": "event"
    },
    {
      "anonymous": false,
      "inputs": [
        {
          "indexed": true,
          "internalType": "address",
          "name": "from",
          "type": "address"
        },
        {
          "indexed": true,
          "internalType": "address",
          "name": "to",
          "type": "address"
        },
        {
          "indexed": true,
          "internalType": "uint256",
          "name": "tokenId",
          "type": "uint256"
        }
      ],
      "name": "Transfer",
      "type": "event"
    },
    {
      "inputs": [
        {
          "internalType": "string",
          "name": "",
          "type": "string"
        },
        {
          "internalType": "address",
          "name": "",
          "type": "address"
        }
      ],
      "name": "PendingReturns",
      "outputs": [
        {
          "internalType": "uint256",
          "name": "",
          "type": "uint256"
        }
      ],
      "stateMutability": "view",
      "type": "function",
      "constant": true
    },
    {
      "inputs": [],
      "name": "_biddingTime",
      "outputs": [
        {
          "internalType": "uint256",
          "name": "",
          "type": "uint256"
        }
      ],
      "stateMutability": "view",
      "type": "function",
      "constant": true
    },
    {
      "inputs": [
        {
          "internalType": "uint256",
          "name": "",
          "type": "uint256"
        }
      ],
      "name": "allfoundry",
      "outputs": [
        {
          "internalType": "string",
          "name": "",
          "type": "string"
        }
      ],
      "stateMutability": "view",
      "type": "function",
      "constant": true
    },
    {
      "inputs": [
        {
          "internalType": "address",
          "name": "to",
          "type": "address"
        },
        {
          "internalType": "uint256",
          "name": "tokenId",
          "type": "uint256"
        }
      ],
      "name": "approve",
      "outputs": [],
      "stateMutability": "nonpayable",
      "type": "function"
    },
    {
      "inputs": [
        {
          "internalType": "address",
          "name": "owner",
          "type": "address"
        }
      ],
      "name": "balanceOf",
      "outputs": [
        {
          "internalType": "uint256",
          "name": "",
          "type": "uint256"
        }
      ],
      "stateMutability": "view",
      "type": "function",
      "constant": true
    },
    {
      "inputs": [],
      "name": "begin",
      "outputs": [
        {
          "internalType": "bool",
          "name": "",
          "type": "bool"
        }
      ],
      "stateMutability": "view",
      "type": "function",
      "constant": true
    },
    {
      "inputs": [],
      "name": "benefiter",
      "outputs": [
        {
          "internalType": "address",
          "name": "",
          "type": "address"
        }
      ],
      "stateMutability": "view",
      "type": "function",
      "constant": true
    },
    {
      "inputs": [
        {
          "internalType": "string",
          "name": "",
          "type": "string"
        }
      ],
      "name": "bigbid",
      "outputs": [
        {
          "internalType": "uint256",
          "name": "",
          "type": "uint256"
        }
      ],
      "stateMutability": "view",
      "type": "function",
      "constant": true
    },
    {
      "inputs": [
        {
          "internalType": "string",
          "name": "",
          "type": "string"
        }
      ],
      "name": "bigbidder",
      "outputs": [
        {
          "internalType": "address",
          "name": "",
          "type": "address"
        }
      ],
      "stateMutability": "view",
      "type": "function",
      "constant": true
    },
    {
      "inputs": [],
      "name": "checkn",
      "outputs": [
        {
          "internalType": "string",
          "name": "",
          "type": "string"
        }
      ],
      "stateMutability": "view",
      "type": "function",
      "constant": true
    },
    {
      "inputs": [
        {
          "internalType": "string",
          "name": "",
          "type": "string"
        }
      ],
      "name": "foundrynumber",
      "outputs": [
        {
          "internalType": "uint256",
          "name": "",
          "type": "uint256"
        }
      ],
      "stateMutability": "view",
      "type": "function",
      "constant": true
    },
    {
      "inputs": [
        {
          "internalType": "string",
          "name": "",
          "type": "string"
        }
      ],
      "name": "foundryowner",
      "outputs": [
        {
          "internalType": "address",
          "name": "",
          "type": "address"
        }
      ],
      "stateMutability": "view",
      "type": "function",
      "constant": true
    },
    {
      "inputs": [
        {
          "internalType": "uint256",
          "name": "tokenId",
          "type": "uint256"
        }
      ],
      "name": "getApproved",
      "outputs": [
        {
          "internalType": "address",
          "name": "",
          "type": "address"
        }
      ],
      "stateMutability": "view",
      "type": "function",
      "constant": true
    },
    {
      "inputs": [],
      "name": "highestBid",
      "outputs": [
        {
          "internalType": "uint256",
          "name": "",
          "type": "uint256"
        }
      ],
      "stateMutability": "view",
      "type": "function",
      "constant": true
    },
    {
      "inputs": [],
      "name": "highestBidder",
      "outputs": [
        {
          "internalType": "address",
          "name": "",
          "type": "address"
        }
      ],
      "stateMutability": "view",
      "type": "function",
      "constant": true
    },
    {
      "inputs": [
        {
          "internalType": "string",
          "name": "",
          "type": "string"
        },
        {
          "internalType": "uint256",
          "name": "",
          "type": "uint256"
        }
      ],
      "name": "historyowner",
      "outputs": [
        {
          "internalType": "address",
          "name": "",
          "type": "address"
        }
      ],
      "stateMutability": "view",
      "type": "function",
      "constant": true
    },
    {
      "inputs": [],
      "name": "index",
      "outputs": [
        {
          "internalType": "uint256",
          "name": "",
          "type": "uint256"
        }
      ],
      "stateMutability": "view",
      "type": "function",
      "constant": true
    },
    {
      "inputs": [
        {
          "internalType": "address",
          "name": "owner",
          "type": "address"
        },
        {
          "internalType": "address",
          "name": "operator",
          "type": "address"
        }
      ],
      "name": "isApprovedForAll",
      "outputs": [
        {
          "internalType": "bool",
          "name": "",
          "type": "bool"
        }
      ],
      "stateMutability": "view",
      "type": "function",
      "constant": true
    },
    {
      "inputs": [
        {
          "internalType": "uint256",
          "name": "",
          "type": "uint256"
        }
      ],
      "name": "isonauction",
      "outputs": [
        {
          "internalType": "string",
          "name": "",
          "type": "string"
        }
      ],
      "stateMutability": "view",
      "type": "function",
      "constant": true
    },
    {
      "inputs": [
        {
          "internalType": "string",
          "name": "",
          "type": "string"
        }
      ],
      "name": "lefttime",
      "outputs": [
        {
          "internalType": "uint256",
          "name": "",
          "type": "uint256"
        }
      ],
      "stateMutability": "view",
      "type": "function",
      "constant": true
    },
    {
      "inputs": [
        {
          "internalType": "uint256",
          "name": "",
          "type": "uint256"
        }
      ],
      "name": "myToken",
      "outputs": [
        {
          "internalType": "address",
          "name": "",
          "type": "address"
        }
      ],
      "stateMutability": "view",
      "type": "function",
      "constant": true
    },
    {
      "inputs": [],
      "name": "name",
      "outputs": [
        {
          "internalType": "string",
          "name": "",
          "type": "string"
        }
      ],
      "stateMutability": "view",
      "type": "function",
      "constant": true
    },
    {
      "inputs": [
        {
          "internalType": "string",
          "name": "",
          "type": "string"
        }
      ],
      "name": "nftindex",
      "outputs": [
        {
          "internalType": "uint256",
          "name": "",
          "type": "uint256"
        }
      ],
      "stateMutability": "view",
      "type": "function",
      "constant": true
    },
    {
      "inputs": [
        {
          "internalType": "string",
          "name": "",
          "type": "string"
        }
      ],
      "name": "nfttime",
      "outputs": [
        {
          "internalType": "uint256",
          "name": "",
          "type": "uint256"
        }
      ],
      "stateMutability": "view",
      "type": "function",
      "constant": true
    },
    {
      "inputs": [],
      "name": "number",
      "outputs": [
        {
          "internalType": "uint256",
          "name": "",
          "type": "uint256"
        }
      ],
      "stateMutability": "view",
      "type": "function",
      "constant": true
    },
    {
      "inputs": [
        {
          "internalType": "uint256",
          "name": "tokenId",
          "type": "uint256"
        }
      ],
      "name": "ownerOf",
      "outputs": [
        {
          "internalType": "address",
          "name": "",
          "type": "address"
        }
      ],
      "stateMutability": "view",
      "type": "function",
      "constant": true
    },
    {
      "inputs": [
        {
          "internalType": "address",
          "name": "",
          "type": "address"
        }
      ],
      "name": "pendingReturns",
      "outputs": [
        {
          "internalType": "uint256",
          "name": "",
          "type": "uint256"
        }
      ],
      "stateMutability": "view",
      "type": "function",
      "constant": true
    },
    {
      "inputs": [],
      "name": "s",
      "outputs": [
        {
          "internalType": "string",
          "name": "",
          "type": "string"
        }
      ],
      "stateMutability": "view",
      "type": "function",
      "constant": true
    },
    {
      "inputs": [
        {
          "internalType": "address",
          "name": "from",
          "type": "address"
        },
        {
          "internalType": "address",
          "name": "to",
          "type": "address"
        },
        {
          "internalType": "uint256",
          "name": "tokenId",
          "type": "uint256"
        }
      ],
      "name": "safeTransferFrom",
      "outputs": [],
      "stateMutability": "nonpayable",
      "type": "function"
    },
    {
      "inputs": [
        {
          "internalType": "address",
          "name": "from",
          "type": "address"
        },
        {
          "internalType": "address",
          "name": "to",
          "type": "address"
        },
        {
          "internalType": "uint256",
          "name": "tokenId",
          "type": "uint256"
        },
        {
          "internalType": "bytes",
          "name": "_data",
          "type": "bytes"
        }
      ],
      "name": "safeTransferFrom",
      "outputs": [],
      "stateMutability": "nonpayable",
      "type": "function"
    },
    {
      "inputs": [
        {
          "internalType": "address",
          "name": "operator",
          "type": "address"
        },
        {
          "internalType": "bool",
          "name": "approved",
          "type": "bool"
        }
      ],
      "name": "setApprovalForAll",
      "outputs": [],
      "stateMutability": "nonpayable",
      "type": "function"
    },
    {
      "inputs": [
        {
          "internalType": "bytes4",
          "name": "interfaceId",
          "type": "bytes4"
        }
      ],
      "name": "supportsInterface",
      "outputs": [
        {
          "internalType": "bool",
          "name": "",
          "type": "bool"
        }
      ],
      "stateMutability": "view",
      "type": "function",
      "constant": true
    },
    {
      "inputs": [],
      "name": "symbol",
      "outputs": [
        {
          "internalType": "string",
          "name": "",
          "type": "string"
        }
      ],
      "stateMutability": "view",
      "type": "function",
      "constant": true
    },
    {
      "inputs": [],
      "name": "timeOfAuctionEnd",
      "outputs": [
        {
          "internalType": "uint256",
          "name": "",
          "type": "uint256"
        }
      ],
      "stateMutability": "view",
      "type": "function",
      "constant": true
    },
    {
      "inputs": [
        {
          "internalType": "uint256",
          "name": "",
          "type": "uint256"
        }
      ],
      "name": "tokenName",
      "outputs": [
        {
          "internalType": "string",
          "name": "",
          "type": "string"
        }
      ],
      "stateMutability": "view",
      "type": "function",
      "constant": true
    },
    {
      "inputs": [
        {
          "internalType": "uint256",
          "name": "tokenId",
          "type": "uint256"
        }
      ],
      "name": "tokenURI",
      "outputs": [
        {
          "internalType": "string",
          "name": "",
          "type": "string"
        }
      ],
      "stateMutability": "view",
      "type": "function",
      "constant": true
    },
    {
      "inputs": [
        {
          "internalType": "address",
          "name": "from",
          "type": "address"
        },
        {
          "internalType": "address",
          "name": "to",
          "type": "address"
        },
        {
          "internalType": "uint256",
          "name": "tokenId",
          "type": "uint256"
        }
      ],
      "name": "transferFrom",
      "outputs": [],
      "stateMutability": "nonpayable",
      "type": "function"
    },
    {
      "inputs": [],
      "name": "x",
      "outputs": [
        {
          "internalType": "uint256",
          "name": "",
          "type": "uint256"
        }
      ],
      "stateMutability": "view",
      "type": "function",
      "constant": true
    },
    {
      "inputs": [
        {
          "internalType": "string",
          "name": "name_",
          "type": "string"
        }
      ],
      "name": "Createfoundry",
      "outputs": [],
      "stateMutability": "nonpayable",
      "type": "function"
    },
    {
      "inputs": [
        {
          "internalType": "string",
          "name": "name",
          "type": "string"
        },
        {
          "internalType": "uint256",
          "name": "bidtime",
          "type": "uint256"
        }
      ],
      "name": "createAuction",
      "outputs": [
        {
          "internalType": "bool",
          "name": "",
          "type": "bool"
        }
      ],
      "stateMutability": "nonpayable",
      "type": "function"
    },
    {
      "inputs": [
        {
          "internalType": "string",
          "name": "name",
          "type": "string"
        }
      ],
      "name": "changeNow",
      "outputs": [],
      "stateMutability": "nonpayable",
      "type": "function"
    },
    {
      "inputs": [
        {
          "internalType": "string",
          "name": "name",
          "type": "string"
        }
      ],
      "name": "bid",
      "outputs": [],
      "stateMutability": "payable",
      "type": "function",
      "payable": true
    },
    {
      "inputs": [
        {
          "internalType": "string",
          "name": "name",
          "type": "string"
        }
      ],
      "name": "withdraw",
      "outputs": [
        {
          "internalType": "bool",
          "name": "",
          "type": "bool"
        }
      ],
      "stateMutability": "nonpayable",
      "type": "function"
    },
    {
      "inputs": [
        {
          "internalType": "string",
          "name": "name",
          "type": "string"
        }
      ],
      "name": "AuctionEnd",
      "outputs": [],
      "stateMutability": "nonpayable",
      "type": "function"
    }
  ],
  "bytecode": "0x60806040526000601155600060125560326015556040518060400160405280600781526020017f4e6f7468696e6700000000000000000000000000000000000000000000000000815250601a908051906020019062000060929190620001a3565b506000601b5560405180602001604052806000815250601c90805190602001906200008d929190620001a3565b506000601d556000601e60006101000a81548160ff021916908315150217905550348015620000bb57600080fd5b506040518060400160405280600481526020017f44415254000000000000000000000000000000000000000000000000000000008152506040518060400160405280600381526020017f4152540000000000000000000000000000000000000000000000000000000000815250816000908051906020019062000140929190620001a3565b50806001908051906020019062000159929190620001a3565b50505033601060006101000a81548173ffffffffffffffffffffffffffffffffffffffff021916908373ffffffffffffffffffffffffffffffffffffffff160217905550620002b8565b828054620001b19062000282565b90600052602060002090601f016020900481019282620001d5576000855562000221565b82601f10620001f057805160ff191683800117855562000221565b8280016001018555821562000221579182015b828111156200022057825182559160200191906001019062000203565b5b50905062000230919062000234565b5090565b5b808211156200024f57600081600090555060010162000235565b5090565b7f4e487b7100000000000000000000000000000000000000000000000000000000600052602260045260246000fd5b600060028204905060018216806200029b57607f821691505b60208210811415620002b257620002b162000253565b5b50919050565b6143ef80620002c86000396000f3fe6080604052600436106102675760003560e01c80638381f58a11610144578063c565d509116100b6578063d5fa1e751161007a578063d5fa1e75146109f5578063e081513114610a32578063e725f87714610a5b578063e7539c3b14610a98578063e985e9c514610ac3578063ff89523914610b0057610267565b8063c565d509146108d6578063c87b56dd14610913578063d26aac1214610950578063d2b2aaa01461098d578063d57bde79146109ca57610267565b8063a3390e9511610108578063a3390e95146107a2578063aa83abb5146107cd578063aff11c831461080a578063b4d6fefe14610833578063b724576714610870578063b88d4fde146108ad57610267565b80638381f58a146106cd57806386b714e2146106f857806391f901571461072357806395d89b411461074e578063a22cb4651461077957610267565b806331fb67c2116101dd578063697afb12116101a1578063697afb12146105a457806370a08231146105e157806370a6dfb41461061e57806372b44c931461065b5780637aef951c146106865780637f8c1afc146106a257610267565b806331fb67c21461048757806342842e0e146104c457806361e2bf1b146104ed5780636352211e1461052a57806364e564b51461056757610267565b80630c55699c1161022f5780630c55699c146103775780631bce6ff3146103a257806323b872dd146103cd57806325c080cc146103f657806326b387bb1461041f5780632986c0e51461045c57610267565b806301ffc9a71461026c57806306fdde03146102a9578063081812fc146102d4578063095ea7b3146103115780630ad3183a1461033a575b600080fd5b34801561027857600080fd5b50610293600480360381019061028e9190613146565b610b3d565b6040516102a0919061318e565b60405180910390f35b3480156102b557600080fd5b506102be610c1f565b6040516102cb9190613242565b60405180910390f35b3480156102e057600080fd5b506102fb60048036038101906102f6919061329a565b610cb1565b6040516103089190613308565b60405180910390f35b34801561031d57600080fd5b506103386004803603810190610333919061334f565b610d36565b005b34801561034657600080fd5b50610361600480360381019061035c91906134c4565b610e4e565b60405161036e9190613308565b60405180910390f35b34801561038357600080fd5b5061038c610e97565b604051610399919061351c565b60405180910390f35b3480156103ae57600080fd5b506103b7610e9d565b6040516103c4919061318e565b60405180910390f35b3480156103d957600080fd5b506103f460048036038101906103ef9190613537565b610eb0565b005b34801561040257600080fd5b5061041d600480360381019061041891906134c4565b610f10565b005b34801561042b57600080fd5b506104466004803603810190610441919061358a565b610faf565b604051610453919061351c565b60405180910390f35b34801561046857600080fd5b50610471610fc7565b60405161047e919061351c565b60405180910390f35b34801561049357600080fd5b506104ae60048036038101906104a99190613617565b610fcd565b6040516104bb919061318e565b60405180910390f35b3480156104d057600080fd5b506104eb60048036038101906104e69190613537565b61111f565b005b3480156104f957600080fd5b50610514600480360381019061050f919061329a565b61113f565b6040516105219190613242565b60405180910390f35b34801561053657600080fd5b50610551600480360381019061054c919061329a565b6111df565b60405161055e9190613308565b60405180910390f35b34801561057357600080fd5b5061058e6004803603810190610589919061329a565b611291565b60405161059b9190613242565b60405180910390f35b3480156105b057600080fd5b506105cb60048036038101906105c691906134c4565b611331565b6040516105d89190613308565b60405180910390f35b3480156105ed57600080fd5b506106086004803603810190610603919061358a565b61137a565b604051610615919061351c565b60405180910390f35b34801561062a57600080fd5b50610645600480360381019061064091906134c4565b611432565b604051610652919061351c565b60405180910390f35b34801561066757600080fd5b50610670611460565b60405161067d919061351c565b60405180910390f35b6106a0600480360381019061069b9190613617565b611466565b005b3480156106ae57600080fd5b506106b76116ab565b6040516106c49190613242565b60405180910390f35b3480156106d957600080fd5b506106e2611739565b6040516106ef919061351c565b60405180910390f35b34801561070457600080fd5b5061070d61173f565b60405161071a9190613242565b60405180910390f35b34801561072f57600080fd5b506107386117cd565b6040516107459190613308565b60405180910390f35b34801561075a57600080fd5b506107636117f3565b6040516107709190613242565b60405180910390f35b34801561078557600080fd5b506107a0600480360381019061079b9190613690565b611885565b005b3480156107ae57600080fd5b506107b7611a06565b6040516107c49190613308565b60405180910390f35b3480156107d957600080fd5b506107f460048036038101906107ef91906136d0565b611a2c565b604051610801919061351c565b60405180910390f35b34801561081657600080fd5b50610831600480360381019061082c9190613617565b611a67565b005b34801561083f57600080fd5b5061085a6004803603810190610855919061372c565b611c7b565b6040516108679190613308565b60405180910390f35b34801561087c57600080fd5b50610897600480360381019061089291906134c4565b611cd3565b6040516108a4919061351c565b60405180910390f35b3480156108b957600080fd5b506108d460048036038101906108cf9190613829565b611d01565b005b3480156108e257600080fd5b506108fd60048036038101906108f8919061329a565b611d63565b60405161090a9190613308565b60405180910390f35b34801561091f57600080fd5b5061093a6004803603810190610935919061329a565b611d96565b6040516109479190613242565b60405180910390f35b34801561095c57600080fd5b50610977600480360381019061097291906134c4565b611e3d565b604051610984919061351c565b60405180910390f35b34801561099957600080fd5b506109b460048036038101906109af91906134c4565b611e6b565b6040516109c1919061351c565b60405180910390f35b3480156109d657600080fd5b506109df611e99565b6040516109ec919061351c565b60405180910390f35b348015610a0157600080fd5b50610a1c6004803603810190610a1791906134c4565b611e9f565b604051610a29919061351c565b60405180910390f35b348015610a3e57600080fd5b50610a596004803603810190610a549190613617565b611ecd565b005b348015610a6757600080fd5b50610a826004803603810190610a7d919061329a565b61233f565b604051610a8f9190613242565b60405180910390f35b348015610aa457600080fd5b50610aad6123df565b604051610aba919061351c565b60405180910390f35b348015610acf57600080fd5b50610aea6004803603810190610ae591906138ac565b6123e5565b604051610af7919061318e565b60405180910390f35b348015610b0c57600080fd5b50610b276004803603810190610b2291906138ec565b612479565b604051610b34919061318e565b60405180910390f35b60007f80ac58cd000000000000000000000000000000000000000000000000000000007bffffffffffffffffffffffffffffffffffffffffffffffffffffffff1916827bffffffffffffffffffffffffffffffffffffffffffffffffffffffff19161480610c0857507f5b5e139f000000000000000000000000000000000000000000000000000000007bffffffffffffffffffffffffffffffffffffffffffffffffffffffff1916827bffffffffffffffffffffffffffffffffffffffffffffffffffffffff1916145b80610c185750610c17826126d0565b5b9050919050565b606060008054610c2e9061397b565b80601f0160208091040260200160405190810160405280929190818152602001828054610c5a9061397b565b8015610ca75780601f10610c7c57610100808354040283529160200191610ca7565b820191906000526020600020905b815481529060010190602001808311610c8a57829003601f168201915b5050505050905090565b6000610cbc8261273a565b610cfb576040517f08c379a0000000000000000000000000000000000000000000000000000000008152600401610cf290613a1f565b60405180910390fd5b6004600083815260200190815260200160002060009054906101000a900473ffffffffffffffffffffffffffffffffffffffff169050919050565b6000610d41826111df565b90508073ffffffffffffffffffffffffffffffffffffffff168373ffffffffffffffffffffffffffffffffffffffff161415610db2576040517f08c379a0000000000000000000000000000000000000000000000000000000008152600401610da990613ab1565b60405180910390fd5b8073ffffffffffffffffffffffffffffffffffffffff16610dd16127a6565b73ffffffffffffffffffffffffffffffffffffffff161480610e005750610dff81610dfa6127a6565b6123e5565b5b610e3f576040517f08c379a0000000000000000000000000000000000000000000000000000000008152600401610e3690613b43565b60405180910390fd5b610e4983836127ae565b505050565b6007818051602081018201805184825260208301602085012081835280955050505050506000915054906101000a900473ffffffffffffffffffffffffffffffffffffffff1681565b601b5481565b601e60009054906101000a900460ff1681565b610ec1610ebb6127a6565b82612867565b610f00576040517f08c379a0000000000000000000000000000000000000000000000000000000008152600401610ef790613bd5565b60405180910390fd5b610f0b838383612945565b505050565b600c81604051610f209190613c31565b908152602001604051809103902054421115610f5f576000600d82604051610f489190613c31565b908152602001604051809103902081905550610fac565b42600c82604051610f709190613c31565b908152602001604051809103902054610f899190613c77565b600d82604051610f999190613c31565b9081526020016040518091039020819055505b50565b60186020528060005260406000206000915090505481565b601d5481565b60008060198484604051610fe2929190613cd0565b908152602001604051809103902060003373ffffffffffffffffffffffffffffffffffffffff1673ffffffffffffffffffffffffffffffffffffffff1681526020019081526020016000205490506000811161103d57600080fd5b6000811115611113576000601860003373ffffffffffffffffffffffffffffffffffffffff1673ffffffffffffffffffffffffffffffffffffffff168152602001908152602001600020819055503373ffffffffffffffffffffffffffffffffffffffff166108fc829081150290604051600060405180830381858888f193505050506111125780601860003373ffffffffffffffffffffffffffffffffffffffff1673ffffffffffffffffffffffffffffffffffffffff168152602001908152602001600020819055506000915050611119565b5b60019150505b92915050565b61113a83838360405180602001604052806000815250611d01565b505050565b6009602052806000526040600020600091509050805461115e9061397b565b80601f016020809104026020016040519081016040528092919081815260200182805461118a9061397b565b80156111d75780601f106111ac576101008083540402835291602001916111d7565b820191906000526020600020905b8154815290600101906020018083116111ba57829003601f168201915b505050505081565b6000806002600084815260200190815260200160002060009054906101000a900473ffffffffffffffffffffffffffffffffffffffff169050600073ffffffffffffffffffffffffffffffffffffffff168173ffffffffffffffffffffffffffffffffffffffff161415611288576040517f08c379a000000000000000000000000000000000000000000000000000000000815260040161127f90613d5b565b60405180910390fd5b80915050919050565b600860205280600052604060002060009150905080546112b09061397b565b80601f01602080910402602001604051908101604052809291908181526020018280546112dc9061397b565b80156113295780601f106112fe57610100808354040283529160200191611329565b820191906000526020600020905b81548152906001019060200180831161130c57829003601f168201915b505050505081565b600b818051602081018201805184825260208301602085012081835280955050505050506000915054906101000a900473ffffffffffffffffffffffffffffffffffffffff1681565b60008073ffffffffffffffffffffffffffffffffffffffff168273ffffffffffffffffffffffffffffffffffffffff1614156113eb576040517f08c379a00000000000000000000000000000000000000000000000000000000081526004016113e290613ded565b60405180910390fd5b600360008373ffffffffffffffffffffffffffffffffffffffff1673ffffffffffffffffffffffffffffffffffffffff168152602001908152602001600020549050919050565b6006818051602081018201805184825260208301602085012081835280955050505050506000915090505481565b60155481565b600c8282604051611478929190613cd0565b90815260200160405180910390205442111561149357600080fd5b600a82826040516114a5929190613cd0565b90815260200160405180910390205434116114bf57600080fd5b6000600a83836040516114d3929190613cd0565b9081526020016040518091039020541461162357600b82826040516114f9929190613cd0565b908152602001604051809103902060009054906101000a900473ffffffffffffffffffffffffffffffffffffffff1673ffffffffffffffffffffffffffffffffffffffff166108fc600a8484604051611553929190613cd0565b9081526020016040518091039020549081150290604051600060405180830381858888f1935050505015801561158d573d6000803e3d6000fd5b50600a82826040516115a0929190613cd0565b908152602001604051809103902054601983836040516115c1929190613cd0565b908152602001604051809103902060003373ffffffffffffffffffffffffffffffffffffffff1673ffffffffffffffffffffffffffffffffffffffff168152602001908152602001600020600082825461161b9190613e0d565b925050819055505b33600b8383604051611636929190613cd0565b908152602001604051809103902060006101000a81548173ffffffffffffffffffffffffffffffffffffffff021916908373ffffffffffffffffffffffffffffffffffffffff16021790555034600a8383604051611695929190613cd0565b9081526020016040518091039020819055505050565b601c80546116b89061397b565b80601f01602080910402602001604051908101604052809291908181526020018280546116e49061397b565b80156117315780601f1061170657610100808354040283529160200191611731565b820191906000526020600020905b81548152906001019060200180831161171457829003601f168201915b505050505081565b60125481565b601a805461174c9061397b565b80601f01602080910402602001604051908101604052809291908181526020018280546117789061397b565b80156117c55780601f1061179a576101008083540402835291602001916117c5565b820191906000526020600020905b8154815290600101906020018083116117a857829003601f168201915b505050505081565b601360009054906101000a900473ffffffffffffffffffffffffffffffffffffffff1681565b6060600180546118029061397b565b80601f016020809104026020016040519081016040528092919081815260200182805461182e9061397b565b801561187b5780601f106118505761010080835404028352916020019161187b565b820191906000526020600020905b81548152906001019060200180831161185e57829003601f168201915b5050505050905090565b61188d6127a6565b73ffffffffffffffffffffffffffffffffffffffff168273ffffffffffffffffffffffffffffffffffffffff1614156118fb576040517f08c379a00000000000000000000000000000000000000000000000000000000081526004016118f290613eaf565b60405180910390fd5b80600560006119086127a6565b73ffffffffffffffffffffffffffffffffffffffff1673ffffffffffffffffffffffffffffffffffffffff16815260200190815260200160002060008473ffffffffffffffffffffffffffffffffffffffff1673ffffffffffffffffffffffffffffffffffffffff16815260200190815260200160002060006101000a81548160ff0219169083151502179055508173ffffffffffffffffffffffffffffffffffffffff166119b56127a6565b73ffffffffffffffffffffffffffffffffffffffff167f17307eab39ab6107e8899845ad3d59bd9653f200f220920489ca2b5937696c31836040516119fa919061318e565b60405180910390a35050565b601060009054906101000a900473ffffffffffffffffffffffffffffffffffffffff1681565b601982805160208101820180518482526020830160208501208183528095505050505050602052806000526040600020600091509150505481565b8181601a9190611a78929190612f24565b5060125460068383604051611a8e929190613cd0565b9081526020016040518091039020819055503360078383604051611ab3929190613cd0565b908152602001604051809103902060006101000a81548173ffffffffffffffffffffffffffffffffffffffff021916908373ffffffffffffffffffffffffffffffffffffffff16021790555081816008600060125481526020019081526020016000209190611b23929190612f24565b506040518060400160405280600281526020017f6e6f0000000000000000000000000000000000000000000000000000000000008152506009600060125481526020019081526020016000209080519060200190611b82929190612faa565b506000600c8383604051611b97929190613cd0565b90815260200160405180910390208190555060126000815480929190611bbc90613ecf565b91905055506001600e8383604051611bd5929190613cd0565b90815260200160405180910390208190555033600f8383604051611bfa929190613cd0565b90815260200160405180910390206000600e8585604051611c1c929190613cd0565b908152602001604051809103902054815260200190815260200160002060006101000a81548173ffffffffffffffffffffffffffffffffffffffff021916908373ffffffffffffffffffffffffffffffffffffffff1602179055505050565b600f828051602081018201805184825260208301602085012081835280955050505050506020528060005260406000206000915091509054906101000a900473ffffffffffffffffffffffffffffffffffffffff1681565b600c818051602081018201805184825260208301602085012081835280955050505050506000915090505481565b611d12611d0c6127a6565b83612867565b611d51576040517f08c379a0000000000000000000000000000000000000000000000000000000008152600401611d4890613bd5565b60405180910390fd5b611d5d84848484612ba1565b50505050565b60166020528060005260406000206000915054906101000a900473ffffffffffffffffffffffffffffffffffffffff1681565b6060611da18261273a565b611de0576040517f08c379a0000000000000000000000000000000000000000000000000000000008152600401611dd790613f8a565b60405180910390fd5b6000611dea612bfd565b90506000815111611e0a5760405180602001604052806000815250611e35565b80611e1484612c14565b604051602001611e25929190613faa565b6040516020818303038152906040525b915050919050565b600e818051602081018201805184825260208301602085012081835280955050505050506000915090505481565b600a818051602081018201805184825260208301602085012081835280955050505050506000915090505481565b60145481565b600d818051602081018201805184825260208301602085012081835280955050505050506000915090505481565b601154421015611edc57600080fd5b3373ffffffffffffffffffffffffffffffffffffffff16600b8383604051611f05929190613cd0565b908152602001604051809103902060009054906101000a900473ffffffffffffffffffffffffffffffffffffffff1673ffffffffffffffffffffffffffffffffffffffff1614611f5457600080fd5b60078282604051611f66929190613cd0565b908152602001604051809103902060009054906101000a900473ffffffffffffffffffffffffffffffffffffffff1673ffffffffffffffffffffffffffffffffffffffff166108fc600a8484604051611fc0929190613cd0565b9081526020016040518091039020549081150290604051600060405180830381858888f19350505050158015611ffa573d6000803e3d6000fd5b50336007838360405161200e929190613cd0565b908152602001604051809103902060006101000a81548173ffffffffffffffffffffffffffffffffffffffff021916908373ffffffffffffffffffffffffffffffffffffffff1602179055506040518060400160405280600281526020017f6e6f00000000000000000000000000000000000000000000000000000000000081525060096000600685856040516120a6929190613cd0565b908152602001604051809103902054815260200190815260200160002090805190602001906120d6929190612faa565b503373ffffffffffffffffffffffffffffffffffffffff16600f8383604051612100929190613cd0565b90815260200160405180910390206000600e8585604051612122929190613cd0565b908152602001604051809103902054815260200190815260200160002060009054906101000a900473ffffffffffffffffffffffffffffffffffffffff1673ffffffffffffffffffffffffffffffffffffffff161461224257600e828260405161218d929190613cd0565b908152602001604051809103902060008154809291906121ac90613ecf565b919050555033600f83836040516121c4929190613cd0565b90815260200160405180910390206000600e85856040516121e6929190613cd0565b908152602001604051809103902054815260200190815260200160002060006101000a81548173ffffffffffffffffffffffffffffffffffffffff021916908373ffffffffffffffffffffffffffffffffffffffff1602179055505b601a60176000601d5481526020019081526020016000209080546122659061397b565b612270929190613030565b50601360009054906101000a900473ffffffffffffffffffffffffffffffffffffffff1660166000601d54815260200190815260200160002060006101000a81548173ffffffffffffffffffffffffffffffffffffffff021916908373ffffffffffffffffffffffffffffffffffffffff1602179055506040518060400160405280600781526020017f4e6f7468696e6700000000000000000000000000000000000000000000000000815250601a9080519060200190612332929190612faa565b5060006014819055505050565b6017602052806000526040600020600091509050805461235e9061397b565b80601f016020809104026020016040519081016040528092919081815260200182805461238a9061397b565b80156123d75780601f106123ac576101008083540402835291602001916123d7565b820191906000526020600020905b8154815290600101906020018083116123ba57829003601f168201915b505050505081565b60115481565b6000600560008473ffffffffffffffffffffffffffffffffffffffff1673ffffffffffffffffffffffffffffffffffffffff16815260200190815260200160002060008373ffffffffffffffffffffffffffffffffffffffff1673ffffffffffffffffffffffffffffffffffffffff16815260200190815260200160002060009054906101000a900460ff16905092915050565b6000806006858560405161248e929190613cd0565b9081526020016040518091039020549050601d60008154809291906124b290613ecf565b91905055508484601a91906124c8929190612f24565b5033600b86866040516124dc929190613cd0565b908152602001604051809103902060006101000a81548173ffffffffffffffffffffffffffffffffffffffff021916908373ffffffffffffffffffffffffffffffffffffffff1602179055506000600a868660405161253c929190613cd0565b908152602001604051809103902081905550824261255a9190613e0d565b600c868660405161256c929190613cd0565b90815260200160405180910390208190555033601060006101000a81548173ffffffffffffffffffffffffffffffffffffffff021916908373ffffffffffffffffffffffffffffffffffffffff16021790555033601360006101000a81548173ffffffffffffffffffffffffffffffffffffffff021916908373ffffffffffffffffffffffffffffffffffffffff160217905550600060148190555082426126149190613e0d565b6011819055506040518060400160405280600381526020017f7965730000000000000000000000000000000000000000000000000000000000815250600960008381526020019081526020016000209080519060200190612676929190612faa565b506126c485858080601f016020809104026020016040519081016040528093929190818152602001838380828437600081840152601f19601f82011690508083019250505050505050610f10565b60019150509392505050565b60007f01ffc9a7000000000000000000000000000000000000000000000000000000007bffffffffffffffffffffffffffffffffffffffffffffffffffffffff1916827bffffffffffffffffffffffffffffffffffffffffffffffffffffffff1916149050919050565b60008073ffffffffffffffffffffffffffffffffffffffff166002600084815260200190815260200160002060009054906101000a900473ffffffffffffffffffffffffffffffffffffffff1673ffffffffffffffffffffffffffffffffffffffff1614159050919050565b600033905090565b816004600083815260200190815260200160002060006101000a81548173ffffffffffffffffffffffffffffffffffffffff021916908373ffffffffffffffffffffffffffffffffffffffff160217905550808273ffffffffffffffffffffffffffffffffffffffff16612821836111df565b73ffffffffffffffffffffffffffffffffffffffff167f8c5be1e5ebec7d5bd14f71427d1e84f3dd0314c0f7b2291e5b200ac8c7c3b92560405160405180910390a45050565b60006128728261273a565b6128b1576040517f08c379a00000000000000000000000000000000000000000000000000000000081526004016128a890614040565b60405180910390fd5b60006128bc836111df565b90508073ffffffffffffffffffffffffffffffffffffffff168473ffffffffffffffffffffffffffffffffffffffff16148061292b57508373ffffffffffffffffffffffffffffffffffffffff1661291384610cb1565b73ffffffffffffffffffffffffffffffffffffffff16145b8061293c575061293b81856123e5565b5b91505092915050565b8273ffffffffffffffffffffffffffffffffffffffff16612965826111df565b73ffffffffffffffffffffffffffffffffffffffff16146129bb576040517f08c379a00000000000000000000000000000000000000000000000000000000081526004016129b2906140d2565b60405180910390fd5b600073ffffffffffffffffffffffffffffffffffffffff168273ffffffffffffffffffffffffffffffffffffffff161415612a2b576040517f08c379a0000000000000000000000000000000000000000000000000000000008152600401612a2290614164565b60405180910390fd5b612a36838383612d75565b612a416000826127ae565b6001600360008573ffffffffffffffffffffffffffffffffffffffff1673ffffffffffffffffffffffffffffffffffffffff1681526020019081526020016000206000828254612a919190613c77565b925050819055506001600360008473ffffffffffffffffffffffffffffffffffffffff1673ffffffffffffffffffffffffffffffffffffffff1681526020019081526020016000206000828254612ae89190613e0d565b92505081905550816002600083815260200190815260200160002060006101000a81548173ffffffffffffffffffffffffffffffffffffffff021916908373ffffffffffffffffffffffffffffffffffffffff160217905550808273ffffffffffffffffffffffffffffffffffffffff168473ffffffffffffffffffffffffffffffffffffffff167fddf252ad1be2c89b69c2b068fc378daa952ba7f163c4a11628f55a4df523b3ef60405160405180910390a4505050565b612bac848484612945565b612bb884848484612d7a565b612bf7576040517f08c379a0000000000000000000000000000000000000000000000000000000008152600401612bee906141f6565b60405180910390fd5b50505050565b606060405180602001604052806000815250905090565b60606000821415612c5c576040518060400160405280600181526020017f30000000000000000000000000000000000000000000000000000000000000008152509050612d70565b600082905060005b60008214612c8e578080612c7790613ecf565b915050600a82612c879190614245565b9150612c64565b60008167ffffffffffffffff811115612caa57612ca9613399565b5b6040519080825280601f01601f191660200182016040528015612cdc5781602001600182028036833780820191505090505b5090505b60008514612d6957600182612cf59190613c77565b9150600a85612d049190614276565b6030612d109190613e0d565b60f81b818381518110612d2657612d256142a7565b5b60200101907effffffffffffffffffffffffffffffffffffffffffffffffffffffffffffff1916908160001a905350600a85612d629190614245565b9450612ce0565b8093505050505b919050565b505050565b6000612d9b8473ffffffffffffffffffffffffffffffffffffffff16612f11565b15612f04578373ffffffffffffffffffffffffffffffffffffffff1663150b7a02612dc46127a6565b8786866040518563ffffffff1660e01b8152600401612de6949392919061432b565b602060405180830381600087803b158015612e0057600080fd5b505af1925050508015612e3157506040513d601f19601f82011682018060405250810190612e2e919061438c565b60015b612eb4573d8060008114612e61576040519150601f19603f3d011682016040523d82523d6000602084013e612e66565b606091505b50600081511415612eac576040517f08c379a0000000000000000000000000000000000000000000000000000000008152600401612ea3906141f6565b60405180910390fd5b805181602001fd5b63150b7a0260e01b7bffffffffffffffffffffffffffffffffffffffffffffffffffffffff1916817bffffffffffffffffffffffffffffffffffffffffffffffffffffffff191614915050612f09565b600190505b949350505050565b600080823b905060008111915050919050565b828054612f309061397b565b90600052602060002090601f016020900481019282612f525760008555612f99565b82601f10612f6b57803560ff1916838001178555612f99565b82800160010185558215612f99579182015b82811115612f98578235825591602001919060010190612f7d565b5b509050612fa691906130bd565b5090565b828054612fb69061397b565b90600052602060002090601f016020900481019282612fd8576000855561301f565b82601f10612ff157805160ff191683800117855561301f565b8280016001018555821561301f579182015b8281111561301e578251825591602001919060010190613003565b5b50905061302c91906130bd565b5090565b82805461303c9061397b565b90600052602060002090601f01602090048101928261305e57600085556130ac565b82601f1061306f57805485556130ac565b828001600101855582156130ac57600052602060002091601f016020900482015b828111156130ab578254825591600101919060010190613090565b5b5090506130b991906130bd565b5090565b5b808211156130d65760008160009055506001016130be565b5090565b6000604051905090565b600080fd5b600080fd5b60007fffffffff0000000000000000000000000000000000000000000000000000000082169050919050565b613123816130ee565b811461312e57600080fd5b50565b6000813590506131408161311a565b92915050565b60006020828403121561315c5761315b6130e4565b5b600061316a84828501613131565b91505092915050565b60008115159050919050565b61318881613173565b82525050565b60006020820190506131a3600083018461317f565b92915050565b600081519050919050565b600082825260208201905092915050565b60005b838110156131e35780820151818401526020810190506131c8565b838111156131f2576000848401525b50505050565b6000601f19601f8301169050919050565b6000613214826131a9565b61321e81856131b4565b935061322e8185602086016131c5565b613237816131f8565b840191505092915050565b6000602082019050818103600083015261325c8184613209565b905092915050565b6000819050919050565b61327781613264565b811461328257600080fd5b50565b6000813590506132948161326e565b92915050565b6000602082840312156132b0576132af6130e4565b5b60006132be84828501613285565b91505092915050565b600073ffffffffffffffffffffffffffffffffffffffff82169050919050565b60006132f2826132c7565b9050919050565b613302816132e7565b82525050565b600060208201905061331d60008301846132f9565b92915050565b61332c816132e7565b811461333757600080fd5b50565b60008135905061334981613323565b92915050565b60008060408385031215613366576133656130e4565b5b60006133748582860161333a565b925050602061338585828601613285565b9150509250929050565b600080fd5b600080fd5b7f4e487b7100000000000000000000000000000000000000000000000000000000600052604160045260246000fd5b6133d1826131f8565b810181811067ffffffffffffffff821117156133f0576133ef613399565b5b80604052505050565b60006134036130da565b905061340f82826133c8565b919050565b600067ffffffffffffffff82111561342f5761342e613399565b5b613438826131f8565b9050602081019050919050565b82818337600083830152505050565b600061346761346284613414565b6133f9565b90508281526020810184848401111561348357613482613394565b5b61348e848285613445565b509392505050565b600082601f8301126134ab576134aa61338f565b5b81356134bb848260208601613454565b91505092915050565b6000602082840312156134da576134d96130e4565b5b600082013567ffffffffffffffff8111156134f8576134f76130e9565b5b61350484828501613496565b91505092915050565b61351681613264565b82525050565b6000602082019050613531600083018461350d565b92915050565b6000806000606084860312156135505761354f6130e4565b5b600061355e8682870161333a565b935050602061356f8682870161333a565b925050604061358086828701613285565b9150509250925092565b6000602082840312156135a05761359f6130e4565b5b60006135ae8482850161333a565b91505092915050565b600080fd5b600080fd5b60008083601f8401126135d7576135d661338f565b5b8235905067ffffffffffffffff8111156135f4576135f36135b7565b5b6020830191508360018202830111156136105761360f6135bc565b5b9250929050565b6000806020838503121561362e5761362d6130e4565b5b600083013567ffffffffffffffff81111561364c5761364b6130e9565b5b613658858286016135c1565b92509250509250929050565b61366d81613173565b811461367857600080fd5b50565b60008135905061368a81613664565b92915050565b600080604083850312156136a7576136a66130e4565b5b60006136b58582860161333a565b92505060206136c68582860161367b565b9150509250929050565b600080604083850312156136e7576136e66130e4565b5b600083013567ffffffffffffffff811115613705576137046130e9565b5b61371185828601613496565b92505060206137228582860161333a565b9150509250929050565b60008060408385031215613743576137426130e4565b5b600083013567ffffffffffffffff811115613761576137606130e9565b5b61376d85828601613496565b925050602061377e85828601613285565b9150509250929050565b600067ffffffffffffffff8211156137a3576137a2613399565b5b6137ac826131f8565b9050602081019050919050565b60006137cc6137c784613788565b6133f9565b9050828152602081018484840111156137e8576137e7613394565b5b6137f3848285613445565b509392505050565b600082601f8301126138105761380f61338f565b5b81356138208482602086016137b9565b91505092915050565b60008060008060808587031215613843576138426130e4565b5b60006138518782880161333a565b94505060206138628782880161333a565b935050604061387387828801613285565b925050606085013567ffffffffffffffff811115613894576138936130e9565b5b6138a0878288016137fb565b91505092959194509250565b600080604083850312156138c3576138c26130e4565b5b60006138d18582860161333a565b92505060206138e28582860161333a565b9150509250929050565b600080600060408486031215613905576139046130e4565b5b600084013567ffffffffffffffff811115613923576139226130e9565b5b61392f868287016135c1565b9350935050602061394286828701613285565b9150509250925092565b7f4e487b7100000000000000000000000000000000000000000000000000000000600052602260045260246000fd5b6000600282049050600182168061399357607f821691505b602082108114156139a7576139a661394c565b5b50919050565b7f4552433732313a20617070726f76656420717565727920666f72206e6f6e657860008201527f697374656e7420746f6b656e0000000000000000000000000000000000000000602082015250565b6000613a09602c836131b4565b9150613a14826139ad565b604082019050919050565b60006020820190508181036000830152613a38816139fc565b9050919050565b7f4552433732313a20617070726f76616c20746f2063757272656e74206f776e6560008201527f7200000000000000000000000000000000000000000000000000000000000000602082015250565b6000613a9b6021836131b4565b9150613aa682613a3f565b604082019050919050565b60006020820190508181036000830152613aca81613a8e565b9050919050565b7f4552433732313a20617070726f76652063616c6c6572206973206e6f74206f7760008201527f6e6572206e6f7220617070726f76656420666f7220616c6c0000000000000000602082015250565b6000613b2d6038836131b4565b9150613b3882613ad1565b604082019050919050565b60006020820190508181036000830152613b5c81613b20565b9050919050565b7f4552433732313a207472616e736665722063616c6c6572206973206e6f74206f60008201527f776e6572206e6f7220617070726f766564000000000000000000000000000000602082015250565b6000613bbf6031836131b4565b9150613bca82613b63565b604082019050919050565b60006020820190508181036000830152613bee81613bb2565b9050919050565b600081905092915050565b6000613c0b826131a9565b613c158185613bf5565b9350613c258185602086016131c5565b80840191505092915050565b6000613c3d8284613c00565b915081905092915050565b7f4e487b7100000000000000000000000000000000000000000000000000000000600052601160045260246000fd5b6000613c8282613264565b9150613c8d83613264565b925082821015613ca057613c9f613c48565b5b828203905092915050565b6000613cb78385613bf5565b9350613cc4838584613445565b82840190509392505050565b6000613cdd828486613cab565b91508190509392505050565b7f4552433732313a206f776e657220717565727920666f72206e6f6e657869737460008201527f656e7420746f6b656e0000000000000000000000000000000000000000000000602082015250565b6000613d456029836131b4565b9150613d5082613ce9565b604082019050919050565b60006020820190508181036000830152613d7481613d38565b9050919050565b7f4552433732313a2062616c616e636520717565727920666f7220746865207a6560008201527f726f206164647265737300000000000000000000000000000000000000000000602082015250565b6000613dd7602a836131b4565b9150613de282613d7b565b604082019050919050565b60006020820190508181036000830152613e0681613dca565b9050919050565b6000613e1882613264565b9150613e2383613264565b9250827fffffffffffffffffffffffffffffffffffffffffffffffffffffffffffffffff03821115613e5857613e57613c48565b5b828201905092915050565b7f4552433732313a20617070726f766520746f2063616c6c657200000000000000600082015250565b6000613e996019836131b4565b9150613ea482613e63565b602082019050919050565b60006020820190508181036000830152613ec881613e8c565b9050919050565b6000613eda82613264565b91507fffffffffffffffffffffffffffffffffffffffffffffffffffffffffffffffff821415613f0d57613f0c613c48565b5b600182019050919050565b7f4552433732314d657461646174613a2055524920717565727920666f72206e6f60008201527f6e6578697374656e7420746f6b656e0000000000000000000000000000000000602082015250565b6000613f74602f836131b4565b9150613f7f82613f18565b604082019050919050565b60006020820190508181036000830152613fa381613f67565b9050919050565b6000613fb68285613c00565b9150613fc28284613c00565b91508190509392505050565b7f4552433732313a206f70657261746f7220717565727920666f72206e6f6e657860008201527f697374656e7420746f6b656e0000000000000000000000000000000000000000602082015250565b600061402a602c836131b4565b915061403582613fce565b604082019050919050565b600060208201905081810360008301526140598161401d565b9050919050565b7f4552433732313a207472616e73666572206f6620746f6b656e2074686174206960008201527f73206e6f74206f776e0000000000000000000000000000000000000000000000602082015250565b60006140bc6029836131b4565b91506140c782614060565b604082019050919050565b600060208201905081810360008301526140eb816140af565b9050919050565b7f4552433732313a207472616e7366657220746f20746865207a65726f2061646460008201527f7265737300000000000000000000000000000000000000000000000000000000602082015250565b600061414e6024836131b4565b9150614159826140f2565b604082019050919050565b6000602082019050818103600083015261417d81614141565b9050919050565b7f4552433732313a207472616e7366657220746f206e6f6e20455243373231526560008201527f63656976657220696d706c656d656e7465720000000000000000000000000000602082015250565b60006141e06032836131b4565b91506141eb82614184565b604082019050919050565b6000602082019050818103600083015261420f816141d3565b9050919050565b7f4e487b7100000000000000000000000000000000000000000000000000000000600052601260045260246000fd5b600061425082613264565b915061425b83613264565b92508261426b5761426a614216565b5b828204905092915050565b600061428182613264565b915061428c83613264565b92508261429c5761429b614216565b5b828206905092915050565b7f4e487b7100000000000000000000000000000000000000000000000000000000600052603260045260246000fd5b600081519050919050565b600082825260208201905092915050565b60006142fd826142d6565b61430781856142e1565b93506143178185602086016131c5565b614320816131f8565b840191505092915050565b600060808201905061434060008301876132f9565b61434d60208301866132f9565b61435a604083018561350d565b818103606083015261436c81846142f2565b905095945050505050565b6000815190506143868161311a565b92915050565b6000602082840312156143a2576143a16130e4565b5b60006143b084828501614377565b9150509291505056fea26469706673582212205208954eeaed00b2d0bd7dbe87afef2c11495cdd7e6e7abe960bbb2aefb7426b64736f6c63430008090033",
  "immutableReferences": {},
  "source": "// SPDX-License-Identifier: GPL-3.0\npragma solidity ^0.8.4;\nimport \"../node_modules/@openzeppelin/contracts/token/ERC721/ERC721.sol\";\ncontract SimpleAuction is ERC721{\n    constructor() public ERC721(\"DART\", \"ART\")  //Initializing ERC721 \n  {   \n    benefiter=msg.sender;\n  }\n\n  mapping(string=>uint) public foundrynumber;\n    mapping (string=>address) public foundryowner;\n    mapping(uint=>string) public allfoundry;\n    mapping(uint=>string) public isonauction;\n    mapping(string=>uint) public bigbid;\n    mapping(string=>address) public bigbidder;\n    mapping (string=>uint) public nfttime;\n    mapping(string=>uint) public lefttime;\n    mapping(string=>uint) public nftindex;\n    mapping(string => mapping(uint => address)) public historyowner;\n\n    \n    address public benefiter; // \n    uint public timeOfAuctionEnd=0; // \n    uint public number=0;\n    address public highestBidder; // \n    uint public highestBid; // \n    uint  public _biddingTime = 50;\n    mapping(uint => address) public myToken; //\n    mapping(uint => string) public tokenName; // \n    mapping(address => uint) public pendingReturns; // \n    mapping(string => mapping(address => uint)) public PendingReturns;\n    string public s = \"Nothing\"; // \n    uint public x = 0; // \n    string public checkn = \"\"; //\n    uint public index = 0; //\n    bool public begin = false; // \n    \n//  struct nft{\n//     address  onwer;\n//     bool  isonauction;\n//     string  name;\n//     address  BigBidder;\n//     uint  Bigbid;\n//     uint index;\n// }\n\n    //\n  \n    function Createfoundry(string calldata name_) public{\n        \n        \n        s=name_;\n        foundrynumber[name_]=number;\n        foundryowner[name_]=msg.sender;\n        allfoundry[number]=name_;\n        isonauction[number]=\"no\";\n        nfttime[name_]=0;\n        number++;\n        nftindex[name_]=1;\n        historyowner[name_][nftindex[name_]]=msg.sender;\n    }\n   \n\n\n    function createAuction( string calldata name ,uint bidtime) public returns (bool) {\n        uint num=foundrynumber[name];\n        //require(isonauction[num] != \"yes\");\n        index ++;\n        s = name;\n        \n        bigbidder[name]=msg.sender;\n        bigbid[name]=0;\n        nfttime[name]=block.timestamp+bidtime;\n\n\n        benefiter = msg.sender;\n        highestBidder = msg.sender;\n        highestBid = 0;\n        timeOfAuctionEnd = block.timestamp + bidtime;\n        isonauction[num] = \"yes\";\n        changeNow(name);\n        return true; \n    }\n    //\n    function changeNow(string memory name) public {\n        if(block.timestamp > nfttime[name] ) {\n            lefttime[name] = 0; \n        }\n        else{\n        lefttime[name] = nfttime[name]  - block.timestamp;\n        } \n    }\n    // \n    function bid(string calldata name) public payable {\n        require(block.timestamp <= nfttime[name]);\n        // \n        require(msg.value > bigbid[name]);\n        if (bigbid[name] != 0) {\n            payable(bigbidder[name]).transfer(bigbid[name]);\n        PendingReturns[name][msg.sender] += bigbid[name]; \n        }\n        bigbidder[name] = msg.sender;\n        bigbid[name] = msg.value;\n        \n    }\n    // \n    function withdraw(string calldata name) public returns (bool) {\n        uint amount = PendingReturns[name][msg.sender];\n        require(amount > 0);\n        if (amount > 0) {\n        pendingReturns[msg.sender] = 0;\n        if (!payable(msg.sender).send(amount)) {\n        pendingReturns[msg.sender] = amount;\n        return false; }\n        }\n        return true; \n    }\n    function AuctionEnd(string calldata name) public {\n        require(block.timestamp  >= timeOfAuctionEnd);\n        require(bigbidder[name] == msg.sender);\n        payable(foundryowner[name]).transfer(bigbid[name]); \n        foundryowner[name]=msg.sender;\n        isonauction[foundrynumber[name]]=\"no\";\n        if(historyowner[name][nftindex[name]]!=msg.sender){\n            nftindex[name]++;\n            historyowner[name][nftindex[name]]=msg.sender;\n        }\n        tokenName[index] = s;\n        myToken[index] = highestBidder;\n        s = \"Nothing\";\n        highestBid = 0;\n    }\n}\n",
  "sourcePath": "/Users/dingzhengyao/Desktop///dapp/contracts/SimpleAuction.sol",
  "compiler": {
    "name": "solc",
    "version": "0.8.9+commit.e5eed63a.Emscripten.clang"
  },
  "schemaVersion": "3.4.3",
  "updatedAt": "2021-11-01T03:35:48.310Z",
  "networkType": "ethereum",
  "devdoc": {
    "kind": "dev",
    "methods": {
      "approve(address,uint256)": {
        "details": "See {IERC721-approve}."
      },
      "balanceOf(address)": {
        "details": "See {IERC721-balanceOf}."
      },
      "getApproved(uint256)": {
        "details": "See {IERC721-getApproved}."
      },
      "isApprovedForAll(address,address)": {
        "details": "See {IERC721-isApprovedForAll}."
      },
      "name()": {
        "details": "See {IERC721Metadata-name}."
      },
      "ownerOf(uint256)": {
        "details": "See {IERC721-ownerOf}."
      },
      "safeTransferFrom(address,address,uint256)": {
        "details": "See {IERC721-safeTransferFrom}."
      },
      "safeTransferFrom(address,address,uint256,bytes)": {
        "details": "See {IERC721-safeTransferFrom}."
      },
      "setApprovalForAll(address,bool)": {
        "details": "See {IERC721-setApprovalForAll}."
      },
      "supportsInterface(bytes4)": {
        "details": "See {IERC165-supportsInterface}."
      },
      "symbol()": {
        "details": "See {IERC721Metadata-symbol}."
      },
      "tokenURI(uint256)": {
        "details": "See {IERC721Metadata-tokenURI}."
      },
      "transferFrom(address,address,uint256)": {
        "details": "See {IERC721-transferFrom}."
      }
    },
    "version": 1
  },
  "userdoc": {
    "kind": "user",
    "methods": {},
    "version": 1
  }
}