{
  "contractName": "Voting",
  "abi": [
    {
      "inputs": [
        {
          "internalType": "bytes32[]",
          "name": "_candidates",
          "type": "bytes32[]"
        }
      ],
      "stateMutability": "nonpayable",
      "type": "constructor"
    },
    {
      "inputs": [
        {
          "internalType": "bytes32",
          "name": "person",
          "type": "bytes32"
        }
      ],
      "name": "votingToPerson",
      "outputs": [],
      "stateMutability": "payable",
      "type": "function",
      "payable": true
    },
    {
      "inputs": [
        {
          "internalType": "bytes32",
          "name": "person",
          "type": "bytes32"
        }
      ],
      "name": "votingTotalToPerson",
      "outputs": [
        {
          "internalType": "uint256",
          "name": "",
          "type": "uint256"
        }
      ],
      "stateMutability": "view",
      "type": "function",
      "constant": true
    },
    {
      "inputs": [
        {
          "internalType": "bytes32",
          "name": "person",
          "type": "bytes32"
        }
      ],
      "name": "isValidToPerson",
      "outputs": [
        {
          "internalType": "bool",
          "name": "",
          "type": "bool"
        }
      ],
      "stateMutability": "view",
      "type": "function",
      "constant": true
    }
  ],
  "bytecode": "0x608060405234801561001057600080fd5b5060405161068c38038061068c8339818101604052810190610032919061025c565b806000908051906020019061004892919061004f565b50506102a5565b82805482825590600052602060002090810192821561008b579160200282015b8281111561008a57825182559160200191906001019061006f565b5b509050610098919061009c565b5090565b5b808211156100b557600081600090555060010161009d565b5090565b6000604051905090565b600080fd5b600080fd5b600080fd5b6000601f19601f8301169050919050565b7f4e487b7100000000000000000000000000000000000000000000000000000000600052604160045260246000fd5b61011b826100d2565b810181811067ffffffffffffffff8211171561013a576101396100e3565b5b80604052505050565b600061014d6100b9565b90506101598282610112565b919050565b600067ffffffffffffffff821115610179576101786100e3565b5b602082029050602081019050919050565b600080fd5b6000819050919050565b6101a28161018f565b81146101ad57600080fd5b50565b6000815190506101bf81610199565b92915050565b60006101d86101d38461015e565b610143565b905080838252602082019050602084028301858111156101fb576101fa61018a565b5b835b81811015610224578061021088826101b0565b8452602084019350506020810190506101fd565b5050509392505050565b600082601f830112610243576102426100cd565b5b81516102538482602086016101c5565b91505092915050565b600060208284031215610272576102716100c3565b5b600082015167ffffffffffffffff8111156102905761028f6100c8565b5b61029c8482850161022e565b91505092915050565b6103d8806102b46000396000f3fe6080604052600436106100345760003560e01c8063534c5e6c14610039578063fa53aa1814610076578063fa6018f614610092575b600080fd5b34801561004557600080fd5b50610060600480360381019061005b91906101df565b6100cf565b60405161006d9190610227565b60405180910390f35b610090600480360381019061008b91906101df565b610132565b005b34801561009e57600080fd5b506100b960048036038101906100b491906101df565b610175565b6040516100c6919061025b565b60405180910390f35b600080600090505b6000805490508110156101275782600082815481106100f9576100f8610276565b5b9060005260206000200154141561011457600191505061012d565b808061011f906102d4565b9150506100d7565b50600090505b919050565b61013b816100cf565b6101485761014761031d565b5b6001806000838152602001908152602001600020600082825461016b919061034c565b9250508190555050565b6000610180826100cf565b61018957600080fd5b60016000838152602001908152602001600020549050919050565b600080fd5b6000819050919050565b6101bc816101a9565b81146101c757600080fd5b50565b6000813590506101d9816101b3565b92915050565b6000602082840312156101f5576101f46101a4565b5b6000610203848285016101ca565b91505092915050565b60008115159050919050565b6102218161020c565b82525050565b600060208201905061023c6000830184610218565b92915050565b6000819050919050565b61025581610242565b82525050565b6000602082019050610270600083018461024c565b92915050565b7f4e487b7100000000000000000000000000000000000000000000000000000000600052603260045260246000fd5b7f4e487b7100000000000000000000000000000000000000000000000000000000600052601160045260246000fd5b60006102df82610242565b91507fffffffffffffffffffffffffffffffffffffffffffffffffffffffffffffffff821415610312576103116102a5565b5b600182019050919050565b7f4e487b7100000000000000000000000000000000000000000000000000000000600052600160045260246000fd5b600061035782610242565b915061036283610242565b9250827fffffffffffffffffffffffffffffffffffffffffffffffffffffffffffffffff03821115610397576103966102a5565b5b82820190509291505056fea264697066735822122038f3bf30a5092dbafd09c3290fec899210cfc7d3428d62769df62a3afb9037b264736f6c63430008090033",
  "immutableReferences": {},
  "source": "pragma solidity ^0.8.0;\n\ncontract Voting {\n\n    bytes32[] candidates;\n    \n    mapping(bytes32 => uint) candidatesVotingCount;\n    \n    // https://stackoverflow.com/questions/53460851/typeerror-data-location-must-be-memory-for-parameter-in-function-but-none-wa\n    // googleremix bytes32[] :https://blog.csdn.net/github_38575699/article/details/101269929\n    // remixsolidityDeploybytes3232\n    // [\"A\", \"B\"]:\n    /* [\"0x4100000000000000000000000000000000000000000000000000000000000000\", \n        \"0x4200000000000000000000000000000000000000000000000000000000000000\"]\n    */\n    constructor(bytes32[] memory _candidates) public {\n        candidates = _candidates;\n    }\n    \n    function votingToPerson(bytes32  person) public payable{\n        assert(isValidToPerson(person));\n        candidatesVotingCount[person] += 1;\n    }\n    \n    function votingTotalToPerson(bytes32  person) view public returns(uint) {\n        require(isValidToPerson(person));\n        return candidatesVotingCount[person];\n    }\n    \n    function isValidToPerson(bytes32  person) view public returns(bool) {\n        for (uint i = 0; i < candidates.length; i++) {\n            if (candidates[i] == person) {\n                return true;\n            }\n        }\n        return false;\n    }\n}\n",
  "sourcePath": "/Users/dingzhengyao/Desktop///dapp/contracts/Voting.sol",
  "compiler": {
    "name": "solc",
    "version": "0.8.9+commit.e5eed63a.Emscripten.clang"
  },
  "schemaVersion": "3.4.3",
  "updatedAt": "2021-10-24T02:39:49.784Z",
  "networkType": "ethereum",
  "devdoc": {
    "kind": "dev",
    "methods": {},
    "version": 1
  },
  "userdoc": {
    "kind": "user",
    "methods": {},
    "version": 1
  }
}